{
  "contractName": "Market",
  "abi": [
    {
      "inputs": [
        {
          "internalType": "contract ERC20",
          "name": "_token",
          "type": "address"
        },
        {
          "internalType": "uint256",
          "name": "_baseBorrowRate",
          "type": "uint256"
        }
      ],
      "payable": false,
      "stateMutability": "nonpayable",
      "type": "constructor"
    },
    {
      "constant": true,
      "inputs": [],
      "name": "accrualBlockNumber",
      "outputs": [
        {
          "internalType": "uint256",
          "name": "",
          "type": "uint256"
        }
      ],
      "payable": false,
      "stateMutability": "view",
      "type": "function"
    },
    {
      "constant": true,
      "inputs": [],
      "name": "baseBorrowRate",
      "outputs": [
        {
          "internalType": "uint256",
          "name": "",
          "type": "uint256"
        }
      ],
      "payable": false,
      "stateMutability": "view",
      "type": "function"
    },
    {
      "constant": true,
      "inputs": [],
      "name": "borrowIndex",
      "outputs": [
        {
          "internalType": "uint256",
          "name": "",
          "type": "uint256"
        }
      ],
      "payable": false,
      "stateMutability": "view",
      "type": "function"
    },
    {
      "constant": true,
      "inputs": [],
      "name": "controller",
      "outputs": [
        {
          "internalType": "contract Controller",
          "name": "",
          "type": "address"
        }
      ],
      "payable": false,
      "stateMutability": "view",
      "type": "function"
    },
    {
      "constant": true,
      "inputs": [],
      "name": "owner",
      "outputs": [
        {
          "internalType": "address",
          "name": "",
          "type": "address"
        }
      ],
      "payable": false,
      "stateMutability": "view",
      "type": "function"
    },
    {
      "constant": true,
      "inputs": [],
      "name": "supplyIndex",
      "outputs": [
        {
          "internalType": "uint256",
          "name": "",
          "type": "uint256"
        }
      ],
      "payable": false,
      "stateMutability": "view",
      "type": "function"
    },
    {
      "constant": true,
      "inputs": [],
      "name": "token",
      "outputs": [
        {
          "internalType": "contract ERC20",
          "name": "",
          "type": "address"
        }
      ],
      "payable": false,
      "stateMutability": "view",
      "type": "function"
    },
    {
      "constant": true,
      "inputs": [],
      "name": "totalBorrows",
      "outputs": [
        {
          "internalType": "uint256",
          "name": "",
          "type": "uint256"
        }
      ],
      "payable": false,
      "stateMutability": "view",
      "type": "function"
    },
    {
      "constant": true,
      "inputs": [],
      "name": "totalSupply",
      "outputs": [
        {
          "internalType": "uint256",
          "name": "",
          "type": "uint256"
        }
      ],
      "payable": false,
      "stateMutability": "view",
      "type": "function"
    },
    {
      "constant": true,
      "inputs": [],
      "name": "getCash",
      "outputs": [
        {
          "internalType": "uint256",
          "name": "",
          "type": "uint256"
        }
      ],
      "payable": false,
      "stateMutability": "view",
      "type": "function"
    },
    {
      "constant": true,
      "inputs": [
        {
          "internalType": "uint256",
          "name": "cash",
          "type": "uint256"
        },
        {
          "internalType": "uint256",
          "name": "borrowed",
          "type": "uint256"
        },
        {
          "internalType": "uint256",
          "name": "reserves",
          "type": "uint256"
        }
      ],
      "name": "utilizationRate",
      "outputs": [
        {
          "internalType": "uint256",
          "name": "",
          "type": "uint256"
        }
      ],
      "payable": false,
      "stateMutability": "pure",
      "type": "function"
    },
    {
      "constant": true,
      "inputs": [
        {
          "internalType": "uint256",
          "name": "cash",
          "type": "uint256"
        },
        {
          "internalType": "uint256",
          "name": "borrowed",
          "type": "uint256"
        },
        {
          "internalType": "uint256",
          "name": "reserves",
          "type": "uint256"
        }
      ],
      "name": "getBorrowRate",
      "outputs": [
        {
          "internalType": "uint256",
          "name": "",
          "type": "uint256"
        }
      ],
      "payable": false,
      "stateMutability": "view",
      "type": "function"
    },
    {
      "constant": true,
      "inputs": [
        {
          "internalType": "uint256",
          "name": "cash",
          "type": "uint256"
        },
        {
          "internalType": "uint256",
          "name": "borrowed",
          "type": "uint256"
        },
        {
          "internalType": "uint256",
          "name": "reserves",
          "type": "uint256"
        }
      ],
      "name": "getSupplyRate",
      "outputs": [
        {
          "internalType": "uint256",
          "name": "",
          "type": "uint256"
        }
      ],
      "payable": false,
      "stateMutability": "view",
      "type": "function"
    },
    {
      "constant": true,
      "inputs": [],
      "name": "borrowRatePerBlock",
      "outputs": [
        {
          "internalType": "uint256",
          "name": "",
          "type": "uint256"
        }
      ],
      "payable": false,
      "stateMutability": "view",
      "type": "function"
    },
    {
      "constant": true,
      "inputs": [],
      "name": "supplyRatePerBlock",
      "outputs": [
        {
          "internalType": "uint256",
          "name": "",
          "type": "uint256"
        }
      ],
      "payable": false,
      "stateMutability": "view",
      "type": "function"
    },
    {
      "constant": true,
      "inputs": [
        {
          "internalType": "address",
          "name": "user",
          "type": "address"
        }
      ],
      "name": "supplyOf",
      "outputs": [
        {
          "internalType": "uint256",
          "name": "",
          "type": "uint256"
        }
      ],
      "payable": false,
      "stateMutability": "view",
      "type": "function"
    },
    {
      "constant": true,
      "inputs": [
        {
          "internalType": "address",
          "name": "user",
          "type": "address"
        }
      ],
      "name": "borrowBy",
      "outputs": [
        {
          "internalType": "uint256",
          "name": "",
          "type": "uint256"
        }
      ],
      "payable": false,
      "stateMutability": "view",
      "type": "function"
    },
    {
      "constant": true,
      "inputs": [
        {
          "internalType": "address",
          "name": "user",
          "type": "address"
        }
      ],
      "name": "updatedBorrowBy",
      "outputs": [
        {
          "internalType": "uint256",
          "name": "",
          "type": "uint256"
        }
      ],
      "payable": false,
      "stateMutability": "view",
      "type": "function"
    },
    {
      "constant": true,
      "inputs": [
        {
          "internalType": "address",
          "name": "user",
          "type": "address"
        }
      ],
      "name": "updatedSupplyOf",
      "outputs": [
        {
          "internalType": "uint256",
          "name": "",
          "type": "uint256"
        }
      ],
      "payable": false,
      "stateMutability": "view",
      "type": "function"
    },
    {
      "constant": false,
      "inputs": [
        {
          "internalType": "contract Controller",
          "name": "_controller",
          "type": "address"
        }
      ],
      "name": "setController",
      "outputs": [],
      "payable": false,
      "stateMutability": "nonpayable",
      "type": "function"
    },
    {
      "constant": false,
      "inputs": [
        {
          "internalType": "uint256",
          "name": "amount",
          "type": "uint256"
        }
      ],
      "name": "supply",
      "outputs": [],
      "payable": false,
      "stateMutability": "nonpayable",
      "type": "function"
    },
    {
      "constant": false,
      "inputs": [
        {
          "internalType": "uint256",
          "name": "amount",
          "type": "uint256"
        }
      ],
      "name": "redeem",
      "outputs": [],
      "payable": false,
      "stateMutability": "nonpayable",
      "type": "function"
    },
    {
      "constant": false,
      "inputs": [
        {
          "internalType": "uint256",
          "name": "amount",
          "type": "uint256"
        }
      ],
      "name": "borrow",
      "outputs": [],
      "payable": false,
      "stateMutability": "nonpayable",
      "type": "function"
    },
    {
      "constant": false,
      "inputs": [],
      "name": "accrueInterest",
      "outputs": [],
      "payable": false,
      "stateMutability": "nonpayable",
      "type": "function"
    },
    {
      "constant": true,
      "inputs": [],
      "name": "getUpdatedTotalBorrows",
      "outputs": [
        {
          "internalType": "uint256",
          "name": "",
          "type": "uint256"
        }
      ],
      "payable": false,
      "stateMutability": "view",
      "type": "function"
    },
    {
      "constant": true,
      "inputs": [],
      "name": "getUpdatedTotalSupply",
      "outputs": [
        {
          "internalType": "uint256",
          "name": "",
          "type": "uint256"
        }
      ],
      "payable": false,
      "stateMutability": "view",
      "type": "function"
    },
    {
      "constant": false,
      "inputs": [
        {
          "internalType": "uint256",
          "name": "amount",
          "type": "uint256"
        }
      ],
      "name": "payBorrow",
      "outputs": [],
      "payable": false,
      "stateMutability": "nonpayable",
      "type": "function"
    }
  ],
  "bytecode": "0x608060405234801561001057600080fd5b50604051611e68380380611e688339818101604052604081101561003357600080fd5b810190808051906020019092919080519060200190929190505050336000806101000a81548173ffffffffffffffffffffffffffffffffffffffff021916908373ffffffffffffffffffffffffffffffffffffffff16021790555081600160006101000a81548173ffffffffffffffffffffffffffffffffffffffff021916908373ffffffffffffffffffffffffffffffffffffffff160217905550620f4240600681905550620f424060048190555080600881905550436005819055505050611d66806101026000396000f3fe608060405234801561001057600080fd5b50600436106101a95760003560e01c806398f1bc12116100f9578063c5ebeaec11610097578063f5d1b7e811610071578063f5d1b7e81461065e578063f77c47911461068c578063f8f9da28146106d6578063fc0c546a146106f4576101a9565b8063c5ebeaec146105aa578063db006a75146105d8578063e681dc7114610606576101a9565b8063ad8feadb116100d3578063ad8feadb146104f8578063ae9d70b014610550578063bf3866821461056e578063c2b170cb1461058c576101a9565b806398f1bc12146104b2578063a6afed95146104d0578063aa5af0fd146104da576101a9565b80634a319647116101665780636e71e2d8116101405780636e71e2d8146103b057806378f1dc03146104065780638da5cb5b1461042457806392eefe9b1461046e576101a9565b80634a319647146102e457806362400e4c1461033a5780636c540baf14610392576101a9565b806315f24053146101ae57806318160ddd146102045780632aad6aa814610222578063354030231461027a5780633b1d21a2146102a857806347bd3718146102c6575b600080fd5b6101ee600480360360608110156101c457600080fd5b8101908080359060200190929190803590602001909291908035906020019092919050505061073e565b6040518082815260200191505060405180910390f35b61020c610768565b6040518082815260200191505060405180910390f35b6102646004803603602081101561023857600080fd5b81019080803573ffffffffffffffffffffffffffffffffffffffff16906020019092919050505061076e565b6040518082815260200191505060405180910390f35b6102a66004803603602081101561029057600080fd5b81019080803590602001909291905050506107fc565b005b6102b0610809565b6040518082815260200191505060405180910390f35b6102ce6108ea565b6040518082815260200191505060405180910390f35b610324600480360360608110156102fa57600080fd5b810190808035906020019092919080359060200190929190803590602001909291905050506108f0565b6040518082815260200191505060405180910390f35b61037c6004803603602081101561035057600080fd5b81019080803573ffffffffffffffffffffffffffffffffffffffff169060200190929190505050610923565b6040518082815260200191505060405180910390f35b61039a61096f565b6040518082815260200191505060405180910390f35b6103f0600480360360608110156103c657600080fd5b81019080803590602001909291908035906020019092919080359060200190929190505050610975565b6040518082815260200191505060405180910390f35b61040e6109a5565b6040518082815260200191505060405180910390f35b61042c6109c3565b604051808273ffffffffffffffffffffffffffffffffffffffff1673ffffffffffffffffffffffffffffffffffffffff16815260200191505060405180910390f35b6104b06004803603602081101561048457600080fd5b81019080803573ffffffffffffffffffffffffffffffffffffffff1690602001909291905050506109e8565b005b6104ba610a85565b6040518082815260200191505060405180910390f35b6104d8610a8b565b005b6104e2610ad4565b6040518082815260200191505060405180910390f35b61053a6004803603602081101561050e57600080fd5b81019080803573ffffffffffffffffffffffffffffffffffffffff169060200190929190505050610ada565b6040518082815260200191505060405180910390f35b610558610b26565b6040518082815260200191505060405180910390f35b610576610b42565b6040518082815260200191505060405180910390f35b610594610b48565b6040518082815260200191505060405180910390f35b6105d6600480360360208110156105c057600080fd5b8101908080359060200190929190505050610b66565b005b610604600480360360208110156105ee57600080fd5b8101908080359060200190929190505050611097565b005b6106486004803603602081101561061c57600080fd5b81019080803573ffffffffffffffffffffffffffffffffffffffff1690602001909291905050506110a4565b6040518082815260200191505060405180910390f35b61068a6004803603602081101561067457600080fd5b8101908080359060200190929190505050611132565b005b610694611140565b604051808273ffffffffffffffffffffffffffffffffffffffff1673ffffffffffffffffffffffffffffffffffffffff16815260200191505060405180910390f35b6106de611166565b6040518082815260200191505060405180910390f35b6106fc611182565b604051808273ffffffffffffffffffffffffffffffffffffffff1673ffffffffffffffffffffffffffffffffffffffff16815260200191505060405180910390f35b60008061074c858585610975565b90506008546103e8828161075c57fe5b04019150509392505050565b60035481565b600080600a60008473ffffffffffffffffffffffffffffffffffffffff1673ffffffffffffffffffffffffffffffffffffffff16815260200190815260200160002090506000816000015414156107c95760009150506107f7565b6000806107d5436111a8565b8092508193505050826001015481846000015402816107f057fe5b0493505050505b919050565b6108063382611230565b50565b6000600160009054906101000a900473ffffffffffffffffffffffffffffffffffffffff1673ffffffffffffffffffffffffffffffffffffffff166370a08231306040518263ffffffff1660e01b8152600401808273ffffffffffffffffffffffffffffffffffffffff1673ffffffffffffffffffffffffffffffffffffffff16815260200191505060206040518083038186803b1580156108aa57600080fd5b505afa1580156108be573d6000803e3d6000fd5b505050506040513d60208110156108d457600080fd5b8101908080519060200190929190505050905090565b60075481565b6000806108fe85858561073e565b9050620f424081610910878787610975565b028161091857fe5b049150509392505050565b6000600960008373ffffffffffffffffffffffffffffffffffffffff1673ffffffffffffffffffffffffffffffffffffffff168152602001908152602001600020600001549050919050565b60055481565b600080831415610988576000905061099e565b8183850103620f424084028161099a57fe5b0490505b9392505050565b60008060006109b3436111a8565b8092508193505050819250505090565b6000809054906101000a900473ffffffffffffffffffffffffffffffffffffffff1681565b6000809054906101000a900473ffffffffffffffffffffffffffffffffffffffff1673ffffffffffffffffffffffffffffffffffffffff163373ffffffffffffffffffffffffffffffffffffffff1614610a4157600080fd5b80600260006101000a81548173ffffffffffffffffffffffffffffffffffffffff021916908373ffffffffffffffffffffffffffffffffffffffff16021790555050565b60045481565b6000439050610a99816111a8565b6007600060066000849190505583919050555050610ab6816114c4565b60036000600460008491905055839190505550508060058190555050565b60065481565b6000600a60008373ffffffffffffffffffffffffffffffffffffffff1673ffffffffffffffffffffffffffffffffffffffff168152602001908152602001600020600001549050919050565b6000610b3d610b33610809565b60075460006108f0565b905090565b60085481565b6000806000610b56436114c4565b8092508193505050819250505090565b80600160009054906101000a900473ffffffffffffffffffffffffffffffffffffffff1673ffffffffffffffffffffffffffffffffffffffff166370a08231306040518263ffffffff1660e01b8152600401808273ffffffffffffffffffffffffffffffffffffffff1673ffffffffffffffffffffffffffffffffffffffff16815260200191505060206040518083038186803b158015610c0657600080fd5b505afa158015610c1a573d6000803e3d6000fd5b505050506040513d6020811015610c3057600080fd5b81019080805190602001909291905050501015610c4c57600080fd5b610c54610a8b565b6000600a60003373ffffffffffffffffffffffffffffffffffffffff1673ffffffffffffffffffffffffffffffffffffffff1681526020019081526020016000209050600081600001541115610ce35760008160000154826001015460065484600001540281610cc057fe5b040390508082600001600082825401925050819055506006548260010181905550505b600282600260009054906101000a900473ffffffffffffffffffffffffffffffffffffffff1673ffffffffffffffffffffffffffffffffffffffff1663cfed246b306040518263ffffffff1660e01b8152600401808273ffffffffffffffffffffffffffffffffffffffff1673ffffffffffffffffffffffffffffffffffffffff16815260200191505060206040518083038186803b158015610d8557600080fd5b505afa158015610d99573d6000803e3d6000fd5b505050506040513d6020811015610daf57600080fd5b81019080805190602001909291905050500202600260009054906101000a900473ffffffffffffffffffffffffffffffffffffffff1673ffffffffffffffffffffffffffffffffffffffff16635ec88c79336040518263ffffffff1660e01b8152600401808273ffffffffffffffffffffffffffffffffffffffff1673ffffffffffffffffffffffffffffffffffffffff16815260200191505060206040518083038186803b158015610e6157600080fd5b505afa158015610e75573d6000803e3d6000fd5b505050506040513d6020811015610e8b57600080fd5b81019080805190602001909291905050501015610f10576040517f08c379a000000000000000000000000000000000000000000000000000000000815260040180806020018281038252601c8152602001807f4e6f7420656e6f756768206163636f756e74206c69717569646974790000000081525060200191505060405180910390fd5b600160009054906101000a900473ffffffffffffffffffffffffffffffffffffffff1673ffffffffffffffffffffffffffffffffffffffff1663a9059cbb33846040518363ffffffff1660e01b8152600401808373ffffffffffffffffffffffffffffffffffffffff1673ffffffffffffffffffffffffffffffffffffffff16815260200182815260200192505050602060405180830381600087803b158015610fb957600080fd5b505af1158015610fcd573d6000803e3d6000fd5b505050506040513d6020811015610fe357600080fd5b8101908080519060200190929190505050611066576040517f08c379a000000000000000000000000000000000000000000000000000000000815260040180806020018281038252601a8152602001807f4e6f20656e6f75676820746f6b656e7320746f20626f72726f7700000000000081525060200191505060405180910390fd5b8181600001600082825401925050819055506006548160010181905550816007600082825401925050819055505050565b6110a1338261154c565b50565b600080600960008473ffffffffffffffffffffffffffffffffffffffff1673ffffffffffffffffffffffffffffffffffffffff16815260200190815260200160002090506000816000015414156110ff57600091505061112d565b60008061110b436114c4565b80925081935050508260010154818460000154028161112657fe5b0493505050505b919050565b61113d333383611ab1565b50565b600260009054906101000a900473ffffffffffffffffffffffffffffffffffffffff1681565b600061117d611173610809565b600754600061073e565b905090565b600160009054906101000a900473ffffffffffffffffffffffffffffffffffffffff1681565b60008060055483116111c3576007546006549150915061122b565b600060075414156111dd576007546006549150915061122b565b60006005548403905060006111f0611166565b820290506000620f424060075483028161120657fe5b049050600654620f424060065484028161121c57fe5b04019350600754810194505050505b915091565b600160009054906101000a900473ffffffffffffffffffffffffffffffffffffffff1673ffffffffffffffffffffffffffffffffffffffff166323b872dd8330846040518463ffffffff1660e01b8152600401808473ffffffffffffffffffffffffffffffffffffffff1673ffffffffffffffffffffffffffffffffffffffff1681526020018373ffffffffffffffffffffffffffffffffffffffff1673ffffffffffffffffffffffffffffffffffffffff1681526020018281526020019350505050602060405180830381600087803b15801561130d57600080fd5b505af1158015611321573d6000803e3d6000fd5b505050506040513d602081101561133757600080fd5b81019080805190602001909291905050506113ba576040517f08c379a00000000000000000000000000000000000000000000000000000000081526004018080602001828103825260108152602001807f4e6f20656e6f75676820746f6b656e730000000000000000000000000000000081525060200191505060405180910390fd5b6113c2610a8b565b6000600960008473ffffffffffffffffffffffffffffffffffffffff1673ffffffffffffffffffffffffffffffffffffffff168152602001908152602001600020905061140e836110a4565b816000018190555081600960008573ffffffffffffffffffffffffffffffffffffffff1673ffffffffffffffffffffffffffffffffffffffff16815260200190815260200160002060000160008282540192505081905550600454600960008573ffffffffffffffffffffffffffffffffffffffff1673ffffffffffffffffffffffffffffffffffffffff1681526020019081526020016000206001018190555081600360008282540192505081905550505050565b60008060055483116114df5760035460045491509150611547565b600060035414156114f95760035460045491509150611547565b600060055484039050600061150c610b26565b820290506000620f424060035483028161152257fe5b049050600454620f424060045484028161153857fe5b04019350600354810194505050505b915091565b80600160009054906101000a900473ffffffffffffffffffffffffffffffffffffffff1673ffffffffffffffffffffffffffffffffffffffff166370a08231306040518263ffffffff1660e01b8152600401808273ffffffffffffffffffffffffffffffffffffffff1673ffffffffffffffffffffffffffffffffffffffff16815260200191505060206040518083038186803b1580156115ec57600080fd5b505afa158015611600573d6000803e3d6000fd5b505050506040513d602081101561161657600080fd5b8101908080519060200190929190505050101561163257600080fd5b61163a610a8b565b6000600960008473ffffffffffffffffffffffffffffffffffffffff1673ffffffffffffffffffffffffffffffffffffffff1681526020019081526020016000209050611686836110a4565b8160000181905550600454600960008573ffffffffffffffffffffffffffffffffffffffff1673ffffffffffffffffffffffffffffffffffffffff1681526020019081526020016000206001018190555081816000015410156116e857600080fd5b600160009054906101000a900473ffffffffffffffffffffffffffffffffffffffff1673ffffffffffffffffffffffffffffffffffffffff1663a9059cbb84846040518363ffffffff1660e01b8152600401808373ffffffffffffffffffffffffffffffffffffffff1673ffffffffffffffffffffffffffffffffffffffff16815260200182815260200192505050602060405180830381600087803b15801561179157600080fd5b505af11580156117a5573d6000803e3d6000fd5b505050506040513d60208110156117bb57600080fd5b810190808051906020019092919050505061183e576040517f08c379a00000000000000000000000000000000000000000000000000000000081526004018080602001828103825260108152602001807f4e6f20656e6f75676820746f6b656e730000000000000000000000000000000081525060200191505060405180910390fd5b81816000016000828254039250508190555081600360008282540392505081905550600080600260009054906101000a900473ffffffffffffffffffffffffffffffffffffffff1673ffffffffffffffffffffffffffffffffffffffff16633baadca0866040518263ffffffff1660e01b8152600401808273ffffffffffffffffffffffffffffffffffffffff1673ffffffffffffffffffffffffffffffffffffffff168152602001915050604080518083038186803b15801561190157600080fd5b505afa158015611915573d6000803e3d6000fd5b505050506040513d604081101561192b57600080fd5b8101908080519060200190929190805190602001909291905050508092508193505050600260009054906101000a900473ffffffffffffffffffffffffffffffffffffffff1673ffffffffffffffffffffffffffffffffffffffff16632703984c6040518163ffffffff1660e01b815260040160206040518083038186803b1580156119b657600080fd5b505afa1580156119ca573d6000803e3d6000fd5b505050506040513d60208110156119e057600080fd5b8101908080519060200190929190505050600260009054906101000a900473ffffffffffffffffffffffffffffffffffffffff1673ffffffffffffffffffffffffffffffffffffffff1663df011c416040518163ffffffff1660e01b815260040160206040518083038186803b158015611a5957600080fd5b505afa158015611a6d573d6000803e3d6000fd5b505050506040513d6020811015611a8357600080fd5b8101908080519060200190929190505050820281611a9d57fe5b04821015611aaa57600080fd5b5050505050565b611ab9610a8b565b6000600a60008473ffffffffffffffffffffffffffffffffffffffff1673ffffffffffffffffffffffffffffffffffffffff16815260200190815260200160002090506000816000015411611b0d57600080fd5b60008160000154826001015460065484600001540281611b2957fe5b04039050808260000160008282540192505081905550600654826001018190555060008383600001541015611b6957826000015484039050826000015493505b600160009054906101000a900473ffffffffffffffffffffffffffffffffffffffff1673ffffffffffffffffffffffffffffffffffffffff166323b872dd8730876040518463ffffffff1660e01b8152600401808473ffffffffffffffffffffffffffffffffffffffff1673ffffffffffffffffffffffffffffffffffffffff1681526020018373ffffffffffffffffffffffffffffffffffffffff1673ffffffffffffffffffffffffffffffffffffffff1681526020018281526020019350505050602060405180830381600087803b158015611c4657600080fd5b505af1158015611c5a573d6000803e3d6000fd5b505050506040513d6020811015611c7057600080fd5b8101908080519060200190929190505050611cf3576040517f08c379a00000000000000000000000000000000000000000000000000000000081526004018080602001828103825260108152602001807f4e6f20656e6f75676820746f6b656e730000000000000000000000000000000081525060200191505060405180910390fd5b838360000160008282540392505081905550836007600082825403925050819055506000811115611d2957611d288682611230565b5b50505050505056fea265627a7a723158201d49db3f612e2dcf9068159eeac1b26b9d8fc8f299b2cbba31dc9cc3220d1c4764736f6c63430005100032",
  "source": "pragma solidity >=0.5.0 <0.6.0;\n\nimport \"./test/ERC20.sol\";\nimport \"./Controller.sol\";\n\ncontract Market is MarketInterface {\n    address public owner;\n\n    ERC20 public token;\n    Controller public controller;\n    \n    uint public totalSupply;\n    \n    uint public supplyIndex;\n\n    uint public accrualBlockNumber;\n    \n    uint public borrowIndex;\n    uint public totalBorrows;\n    uint public baseBorrowRate;\n\n    struct SupplySnapshot {\n        uint supply;\n        uint interestIndex;\n    }\n        \n    struct BorrowSnapshot {\n        uint principal;\n        uint interestIndex;\n    }\n    \n    mapping (address => SupplySnapshot) supplies;\n    mapping (address => BorrowSnapshot) borrows;\n    \n    uint constant FACTOR = 1e6;\n    \n    constructor(ERC20 _token, uint _baseBorrowRate) public {\n        owner = msg.sender;\n        token = _token;\n        borrowIndex = FACTOR;\n        supplyIndex = FACTOR;\n        baseBorrowRate = _baseBorrowRate;\n        accrualBlockNumber = block.number;\n    }\n    \n    modifier onlyOwner() {\n        require(msg.sender == owner);\n        _;\n    }\n    \n    modifier onlyController() {\n        require(msg.sender == address(controller));\n        _;\n    }\n    \n    function getCash() public view returns (uint) {\n        return token.balanceOf(address(this));\n    }\n    \n    function utilizationRate(uint cash, uint borrowed, uint reserves) public pure returns (uint) {\n        if (borrowed == 0)\n            return 0;\n\n        return borrowed * FACTOR / (cash + borrowed - reserves);\n    }\n\n    function getBorrowRate(uint cash, uint borrowed, uint reserves) public view returns (uint) {\n        uint ur = utilizationRate(cash, borrowed, reserves);\n        \n        return ur / 1000 + baseBorrowRate;\n    }\n\n    function getSupplyRate(uint cash, uint borrowed, uint reserves) public view returns (uint) {\n        uint borrowRate = getBorrowRate(cash, borrowed, reserves);\n        \n        return utilizationRate(cash, borrowed, reserves) * borrowRate / FACTOR;\n    }\n\n    function borrowRatePerBlock() public view returns (uint) {\n        return getBorrowRate(getCash(), totalBorrows, 0);\n    }\n    \n    function supplyRatePerBlock() public view returns (uint) {\n        return getSupplyRate(getCash(), totalBorrows, 0);\n    }\n\n    function supplyOf(address user) public view returns (uint) {\n        return supplies[user].supply;\n    }\n    \n    function borrowBy(address user) public view returns (uint) {\n        return borrows[user].principal;\n    }\n    \n    function updatedBorrowBy(address user) public view returns (uint) {\n        BorrowSnapshot storage snapshot = borrows[user];\n        \n        if (snapshot.principal == 0)\n            return 0;\n        \n        uint newTotalBorrows;\n        uint newBorrowIndex;\n        \n        (newTotalBorrows, newBorrowIndex) = calculateBorrowDataAtBlock(block.number);\n        \n        return snapshot.principal * newBorrowIndex / snapshot.interestIndex;\n    }\n    \n    function updatedSupplyOf(address user) public view returns (uint) {\n        SupplySnapshot storage snapshot = supplies[user];\n        \n        if (snapshot.supply == 0)\n            return 0;\n        \n        uint newTotalSupply;\n        uint newSupplyIndex;\n        \n        (newTotalSupply, newSupplyIndex) = calculateSupplyDataAtBlock(block.number);\n        \n        return snapshot.supply * newSupplyIndex / snapshot.interestIndex;\n    }\n    \n    function setController(Controller _controller) public onlyOwner {\n        controller = _controller;\n    }\n    \n    function supply(uint amount) public {\n        supplyInternal(msg.sender, amount);\n    }\n    \n    function supplyInternal(address supplier, uint amount) internal {\n        // TODO check msg.sender != this\n        require(token.transferFrom(supplier, address(this), amount), \"No enough tokens\");\n\n        accrueInterest();\n\n        SupplySnapshot storage supplySnapshot = supplies[supplier];\n        \n        supplySnapshot.supply = updatedSupplyOf(supplier);\n        supplies[supplier].supply += amount;\n        supplies[supplier].interestIndex = supplyIndex;\n        \n        totalSupply += amount;\n    }\n    \n    function redeem(uint amount) public {\n        redeemInternal(msg.sender, amount);\n    }\n    \n    function redeemInternal(address supplier, uint amount) internal {\n        require(token.balanceOf(address(this)) >= amount);\n\n        accrueInterest();\n\n        SupplySnapshot storage supplySnapshot = supplies[supplier];\n\n        supplySnapshot.supply = updatedSupplyOf(supplier);\n        supplies[supplier].interestIndex = supplyIndex;\n        \n        require(supplySnapshot.supply >= amount);\n        \n        require(token.transfer(supplier, amount), \"No enough tokens\");\n        \n        supplySnapshot.supply -= amount;\n        \n        totalSupply -= amount;\n        \n        uint supplierSupplyValue;\n        uint supplierBorrowValue;\n        \n        (supplierSupplyValue, supplierBorrowValue) = controller.getAccountValues(supplier);\n        \n        require(supplierSupplyValue >= supplierBorrowValue * controller.collateralFactor() / controller.MANTISSA());\n    }\n    \n    function borrow(uint amount) public {\n        require(token.balanceOf(address(this)) >= amount);\n        \n        accrueInterest();\n        \n        BorrowSnapshot storage borrowSnapshot = borrows[msg.sender];\n        \n        if (borrowSnapshot.principal > 0) {\n            uint interest = borrowSnapshot.principal * borrowIndex / borrowSnapshot.interestIndex - borrowSnapshot.principal;\n            \n            borrowSnapshot.principal += interest;\n            borrowSnapshot.interestIndex = borrowIndex;\n        }\n        \n        require(controller.getAccountLiquidity(msg.sender) >= controller.prices(address(this)) * amount * 2, \"Not enough account liquidity\");\n        \n        require(token.transfer(msg.sender, amount), \"No enough tokens to borrow\");\n        \n        borrowSnapshot.principal += amount;\n        borrowSnapshot.interestIndex = borrowIndex;\n        \n        totalBorrows += amount;\n    }\n    \n    function accrueInterest() public {\n        uint currentBlockNumber = block.number;\n        \n        (totalBorrows, borrowIndex) = calculateBorrowDataAtBlock(currentBlockNumber);\n        (totalSupply, supplyIndex) = calculateSupplyDataAtBlock(currentBlockNumber);\n        \n        accrualBlockNumber = currentBlockNumber;\n    }\n    \n    function calculateBorrowDataAtBlock(uint newBlockNumber) internal view returns (uint newTotalBorrows, uint newBorrowIndex) {\n        if (newBlockNumber <= accrualBlockNumber)\n            return (totalBorrows, borrowIndex);\n            \n        if (totalBorrows == 0)\n            return (totalBorrows, borrowIndex);\n            \n        uint blockDelta = newBlockNumber - accrualBlockNumber;\n        \n        uint simpleInterestFactor = blockDelta * borrowRatePerBlock();\n        uint interestAccumulated = simpleInterestFactor * totalBorrows / FACTOR;\n        \n        newBorrowIndex = simpleInterestFactor * borrowIndex / FACTOR + borrowIndex;        \n        newTotalBorrows = interestAccumulated + totalBorrows;\n    }\n    \n    function calculateSupplyDataAtBlock(uint newBlockNumber) internal view returns (uint newTotalSupply, uint newSupplyIndex) {\n        if (newBlockNumber <= accrualBlockNumber)\n            return (totalSupply, supplyIndex);\n            \n        if (totalSupply == 0)\n            return (totalSupply, supplyIndex);\n        \n        uint blockDelta = newBlockNumber - accrualBlockNumber;\n        \n        uint simpleInterestFactor = blockDelta * supplyRatePerBlock();\n        uint interestAccumulated = simpleInterestFactor * totalSupply / FACTOR;\n        \n        newSupplyIndex = simpleInterestFactor * supplyIndex / FACTOR + supplyIndex;        \n        newTotalSupply = interestAccumulated + totalSupply;        \n    }\n    \n    function getUpdatedTotalBorrows() public view returns (uint) {\n        uint newTotalBorrows;\n        uint newBorrowIndex;\n        \n        (newTotalBorrows, newBorrowIndex) = calculateBorrowDataAtBlock(block.number);\n        \n        return newTotalBorrows;\n    }\n    \n    function getUpdatedTotalSupply() public view returns (uint) {\n        uint newTotalSupply;\n        uint newSupplyIndex;\n        \n        (newTotalSupply, newSupplyIndex) = calculateSupplyDataAtBlock(block.number);\n        \n        return newTotalSupply;\n    }\n    \n    function payBorrow(uint amount) public {\n        payBorrowInternal(msg.sender, msg.sender, amount);\n    }\n    \n    function payBorrowInternal(address payer, address borrower, uint amount) internal {\n        accrueInterest();\n\n        BorrowSnapshot storage snapshot = borrows[borrower];\n        \n        require(snapshot.principal > 0);\n        \n        uint interest = snapshot.principal * borrowIndex / snapshot.interestIndex - snapshot.principal;\n        \n        snapshot.principal += interest;\n        snapshot.interestIndex = borrowIndex;\n        \n        uint additional;\n        \n        if (snapshot.principal < amount) {\n            additional = amount - snapshot.principal;\n            amount = snapshot.principal;\n        }\n        \n        require(token.transferFrom(payer, address(this), amount), \"No enough tokens\");\n\n        snapshot.principal -= amount;        \n        totalBorrows -= amount;\n        \n        if (additional > 0)\n            supplyInternal(payer, additional);\n    }\n}\n\n",
  "sourcePath": "/home/mesi/Projects/IOVLabs/rbank/contracts/Market.sol",
  "compiler": {
    "name": "solc",
    "version": "0.5.16+commit.9c3226ce.Emscripten.clang"
  },
  "schemaVersion": "3.0.23",
  "updatedAt": "2020-04-16T13:38:51.685Z",
  "devdoc": {
    "methods": {}
  },
  "userdoc": {
    "methods": {}
  }
}